{
  "contractName": "Ownable",
  "abi": [
    {
      "inputs": [],
      "stateMutability": "nonpayable",
      "type": "constructor"
    },
    {
      "anonymous": false,
      "inputs": [
        {
          "indexed": true,
          "internalType": "address",
          "name": "oldOwner",
          "type": "address"
        },
        {
          "indexed": true,
          "internalType": "address",
          "name": "newOwner",
          "type": "address"
        }
      ],
      "name": "TransferOwnershipOfContract",
      "type": "event"
    },
    {
      "anonymous": false,
      "inputs": [
        {
          "indexed": true,
          "internalType": "address",
          "name": "oldOwner",
          "type": "address"
        },
        {
          "indexed": true,
          "internalType": "address",
          "name": "newOwner",
          "type": "address"
        }
      ],
      "name": "TransferOwnershipOfProduct",
      "type": "event"
    },
    {
      "inputs": [
        {
          "internalType": "uint256",
          "name": "",
          "type": "uint256"
        }
      ],
      "name": "owners",
      "outputs": [
        {
          "internalType": "address",
          "name": "",
          "type": "address"
        }
      ],
      "stateMutability": "view",
      "type": "function"
    },
    {
      "inputs": [],
      "name": "ownerOfContract",
      "outputs": [
        {
          "internalType": "address",
          "name": "",
          "type": "address"
        }
      ],
      "stateMutability": "view",
      "type": "function"
    },
    {
      "inputs": [
        {
          "internalType": "uint256",
          "name": "sku",
          "type": "uint256"
        }
      ],
      "name": "ownerOfProduct",
      "outputs": [
        {
          "internalType": "address",
          "name": "",
          "type": "address"
        }
      ],
      "stateMutability": "view",
      "type": "function"
    },
    {
      "inputs": [],
      "name": "isOwnerOfContract",
      "outputs": [
        {
          "internalType": "bool",
          "name": "",
          "type": "bool"
        }
      ],
      "stateMutability": "view",
      "type": "function"
    },
    {
      "inputs": [
        {
          "internalType": "uint256",
          "name": "sku",
          "type": "uint256"
        }
      ],
      "name": "isOwnerOfProduct",
      "outputs": [
        {
          "internalType": "bool",
          "name": "",
          "type": "bool"
        }
      ],
      "stateMutability": "view",
      "type": "function"
    },
    {
      "inputs": [],
      "name": "renounceOwnershipOfContract",
      "outputs": [],
      "stateMutability": "nonpayable",
      "type": "function"
    },
    {
      "inputs": [
        {
          "internalType": "uint256",
          "name": "sku",
          "type": "uint256"
        }
      ],
      "name": "renounceOwnershipOfProduct",
      "outputs": [],
      "stateMutability": "nonpayable",
      "type": "function"
    },
    {
      "inputs": [
        {
          "internalType": "address",
          "name": "newOwner",
          "type": "address"
        }
      ],
      "name": "transferOwnershipOfContract",
      "outputs": [],
      "stateMutability": "nonpayable",
      "type": "function"
    },
    {
      "inputs": [
        {
          "internalType": "address",
          "name": "newOwner",
          "type": "address"
        },
        {
          "internalType": "uint256",
          "name": "sku",
          "type": "uint256"
        }
      ],
      "name": "transferOwnershipOfProduct",
      "outputs": [],
      "stateMutability": "nonpayable",
      "type": "function"
    }
  ],
  "bytecode": "0x608060405234801561001057600080fd5b50336000806101000a81548173ffffffffffffffffffffffffffffffffffffffff021916908373ffffffffffffffffffffffffffffffffffffffff16021790555060008054906101000a900473ffffffffffffffffffffffffffffffffffffffff1673ffffffffffffffffffffffffffffffffffffffff16600073ffffffffffffffffffffffffffffffffffffffff167f8e75c9e234cc9e7f1542a5e305806a27e127944eab53cb7deb6e3eba4d7d263b60405160405180910390a36108ef806100db6000396000f3fe608060405234801561001057600080fd5b50600436106100935760003560e01c80637342048a116100665780637342048a1461012057806387df84391461013c57806390db5118146101585780639247b5c6146101765780639d9505b2146101a657610093565b8063025e7c2714610098578063468229ae146100c85780635f8b1430146100e657806365c9829c146100f0575b600080fd5b6100b260048036038101906100ad91906107c6565b6101c2565b6040516100bf919061080d565b60405180910390f35b6100d06101f5565b6040516100dd919061080d565b60405180910390f35b6100ee61021e565b005b61010a600480360381019061010591906107c6565b6102ed565b6040516101179190610828565b60405180910390f35b61013a60048036038101906101359190610761565b610358565b005b610156600480360381019061015191906107c6565b610375565b005b61016061046d565b60405161016d9190610828565b60405180910390f35b610190600480360381019061018b91906107c6565b6104c4565b60405161019d919061080d565b60405180910390f35b6101c060048036038101906101bb919061078a565b610501565b005b60016020528060005260406000206000915054906101000a900473ffffffffffffffffffffffffffffffffffffffff1681565b60008060009054906101000a900473ffffffffffffffffffffffffffffffffffffffff16905090565b61022661046d565b61022f57600080fd5b600073ffffffffffffffffffffffffffffffffffffffff1660008054906101000a900473ffffffffffffffffffffffffffffffffffffffff1673ffffffffffffffffffffffffffffffffffffffff167f8e75c9e234cc9e7f1542a5e305806a27e127944eab53cb7deb6e3eba4d7d263b60405160405180910390a360008060006101000a81548173ffffffffffffffffffffffffffffffffffffffff021916908373ffffffffffffffffffffffffffffffffffffffff160217905550565b60006001600083815260200190815260200160002060009054906101000a900473ffffffffffffffffffffffffffffffffffffffff1673ffffffffffffffffffffffffffffffffffffffff163373ffffffffffffffffffffffffffffffffffffffff16149050919050565b61036061046d565b61036957600080fd5b61037281610523565b50565b8061037f816102ed565b61038857600080fd5b600073ffffffffffffffffffffffffffffffffffffffff166001600084815260200190815260200160002060009054906101000a900473ffffffffffffffffffffffffffffffffffffffff1673ffffffffffffffffffffffffffffffffffffffff167f16827766d0b22dde3f56dfe00b9d5cf91e0f19b1d8515a571e42b7b35a12d17260405160405180910390a360006001600084815260200190815260200160002060006101000a81548173ffffffffffffffffffffffffffffffffffffffff021916908373ffffffffffffffffffffffffffffffffffffffff1602179055505050565b60008060009054906101000a900473ffffffffffffffffffffffffffffffffffffffff1673ffffffffffffffffffffffffffffffffffffffff163373ffffffffffffffffffffffffffffffffffffffff1614905090565b60006001600083815260200190815260200160002060009054906101000a900473ffffffffffffffffffffffffffffffffffffffff169050919050565b8061050b816102ed565b61051457600080fd5b61051e838361061a565b505050565b600073ffffffffffffffffffffffffffffffffffffffff168173ffffffffffffffffffffffffffffffffffffffff16141561055d57600080fd5b8073ffffffffffffffffffffffffffffffffffffffff1660008054906101000a900473ffffffffffffffffffffffffffffffffffffffff1673ffffffffffffffffffffffffffffffffffffffff167f8e75c9e234cc9e7f1542a5e305806a27e127944eab53cb7deb6e3eba4d7d263b60405160405180910390a3806000806101000a81548173ffffffffffffffffffffffffffffffffffffffff021916908373ffffffffffffffffffffffffffffffffffffffff16021790555050565b600073ffffffffffffffffffffffffffffffffffffffff168273ffffffffffffffffffffffffffffffffffffffff16141561065457600080fd5b8173ffffffffffffffffffffffffffffffffffffffff166001600083815260200190815260200160002060009054906101000a900473ffffffffffffffffffffffffffffffffffffffff1673ffffffffffffffffffffffffffffffffffffffff167f16827766d0b22dde3f56dfe00b9d5cf91e0f19b1d8515a571e42b7b35a12d17260405160405180910390a3816001600083815260200190815260200160002060006101000a81548173ffffffffffffffffffffffffffffffffffffffff021916908373ffffffffffffffffffffffffffffffffffffffff1602179055505050565b6000813590506107468161088b565b92915050565b60008135905061075b816108a2565b92915050565b60006020828403121561077357600080fd5b600061078184828501610737565b91505092915050565b6000806040838503121561079d57600080fd5b60006107ab85828601610737565b92505060206107bc8582860161074c565b9150509250929050565b6000602082840312156107d857600080fd5b60006107e68482850161074c565b91505092915050565b6107f881610843565b82525050565b61080781610855565b82525050565b600060208201905061082260008301846107ef565b92915050565b600060208201905061083d60008301846107fe565b92915050565b600061084e82610861565b9050919050565b60008115159050919050565b600073ffffffffffffffffffffffffffffffffffffffff82169050919050565b6000819050919050565b61089481610843565b811461089f57600080fd5b50565b6108ab81610881565b81146108b657600080fd5b5056fea264697066735822122022f5c6599084fa97eacacf9365c287da1681fd01b9cb77b6b54b09037e4b493764736f6c63430008000033",
  "immutableReferences": {},
  "source": "// SPDX-License-Identifier: MIT\npragma solidity ^0.8.0;\n\n/// Provides basic authorization control\ncontract Ownable {\n    address private contractOwner;\n    mapping (uint => address) public owners;\n\n    // Define an Event\n    event TransferOwnershipOfContract(address indexed oldOwner, address indexed newOwner);\n    event TransferOwnershipOfProduct(address indexed oldOwner, address indexed newOwner);\n\n    /// Assign the contract to an owner\n    constructor () {\n        contractOwner = msg.sender;\n        emit TransferOwnershipOfContract(address(0), contractOwner);\n    }\n\n    /// Look up the address of the owner\n    function ownerOfContract() public view returns (address) {\n        return contractOwner;\n    }\n  \n    function ownerOfProduct(uint sku) public view returns (address) {\n        return owners[sku];\n    }\n   \n    function setOwnerOfProduct(uint sku) internal {\n        owners[sku] = msg.sender;\n    }\n\n    /// Define a function modifier 'onlyOwner'\n    modifier onlyOwnerOfContract() {\n        require(isOwnerOfContract());\n        _;\n    }\n    \n    modifier onlyOwnerOfProduct(uint sku) {\n        require(isOwnerOfProduct(sku));\n        _;\n    }\n\n    /// Check if the calling address is the owner of the contract\n    function isOwnerOfContract() public view returns (bool) {\n        return msg.sender == contractOwner;\n    }\n\n    function isOwnerOfProduct(uint sku) public view returns (bool) {\n        return msg.sender == owners[sku];\n    }\n\n    /// Define a function to renounce ownerhip\n    function renounceOwnershipOfContract() public onlyOwnerOfContract {\n        emit TransferOwnershipOfContract(contractOwner, address(0));\n        contractOwner = address(0);\n    }\n   \n    function renounceOwnershipOfProduct(uint sku) public onlyOwnerOfProduct(sku) {\n        emit TransferOwnershipOfProduct(owners[sku], address(0));\n        owners[sku] = address(0);\n    }\n\n    /// Define a public function to transfer ownership\n    function transferOwnershipOfContract(address newOwner) public onlyOwnerOfContract {\n        _transferOwnershipOfContract(newOwner);\n    }\n   \n    function transferOwnershipOfProduct(address newOwner, uint sku) public onlyOwnerOfProduct(sku) {\n        _transferOwnershipOfProduct(newOwner, sku);\n    }\n\n    /// Define an internal function to transfer ownership\n    function _transferOwnershipOfContract(address newOwner) internal {\n        require(newOwner != address(0));\n        emit TransferOwnershipOfContract(contractOwner, newOwner);\n        contractOwner = newOwner;\n    }\n    /// Define an internal function to transfer ownership\n\n    function _transferOwnershipOfProduct(address newOwner, uint sku) internal {\n        require(newOwner != address(0));\n        emit TransferOwnershipOfProduct(owners[sku], newOwner);\n        owners[sku] = newOwner;\n    }\n}\n",
  "sourcePath": "/home/richardmands/_cinderhouse/crypto/udacity_nanodegree/Project03TrackingItemsDapp/project/project-6/contracts/core/Ownable.sol",
  "compiler": {
    "name": "solc",
    "version": "0.8.0+commit.c7dfd78e.Emscripten.clang"
  },
  "schemaVersion": "3.4.1",
  "updatedAt": "2021-07-16T10:49:37.405Z",
  "devdoc": {
    "kind": "dev",
    "methods": {},
    "version": 1
  },
  "userdoc": {
    "kind": "user",
    "methods": {
      "constructor": {
        "notice": "Assign the contract to an owner"
      },
      "isOwnerOfContract()": {
        "notice": "Check if the calling address is the owner of the contract"
      },
      "ownerOfContract()": {
        "notice": "Look up the address of the owner"
      },
      "renounceOwnershipOfContract()": {
        "notice": "Define a function to renounce ownerhip"
      },
      "transferOwnershipOfContract(address)": {
        "notice": "Define a public function to transfer ownership"
      }
    },
    "notice": "Provides basic authorization control",
    "version": 1
  }
}