{
  "contractName": "SupplyChain",
  "abi": [
    {
      "inputs": [],
      "stateMutability": "payable",
      "type": "constructor",
      "payable": true
    },
    {
      "anonymous": false,
      "inputs": [
        {
          "indexed": true,
          "internalType": "address",
          "name": "account",
          "type": "address"
        }
      ],
      "name": "ConsumerAdded",
      "type": "event"
    },
    {
      "anonymous": false,
      "inputs": [
        {
          "indexed": true,
          "internalType": "address",
          "name": "account",
          "type": "address"
        }
      ],
      "name": "ConsumerRemoved",
      "type": "event"
    },
    {
      "anonymous": false,
      "inputs": [
        {
          "indexed": true,
          "internalType": "address",
          "name": "account",
          "type": "address"
        }
      ],
      "name": "DistributorAdded",
      "type": "event"
    },
    {
      "anonymous": false,
      "inputs": [
        {
          "indexed": true,
          "internalType": "address",
          "name": "account",
          "type": "address"
        }
      ],
      "name": "DistributorRemoved",
      "type": "event"
    },
    {
      "anonymous": false,
      "inputs": [
        {
          "indexed": true,
          "internalType": "address",
          "name": "account",
          "type": "address"
        }
      ],
      "name": "FarmerAdded",
      "type": "event"
    },
    {
      "anonymous": false,
      "inputs": [
        {
          "indexed": true,
          "internalType": "address",
          "name": "account",
          "type": "address"
        }
      ],
      "name": "FarmerRemoved",
      "type": "event"
    },
    {
      "anonymous": false,
      "inputs": [
        {
          "indexed": false,
          "internalType": "uint256",
          "name": "upc",
          "type": "uint256"
        }
      ],
      "name": "ForSale",
      "type": "event"
    },
    {
      "anonymous": false,
      "inputs": [
        {
          "indexed": false,
          "internalType": "uint256",
          "name": "upc",
          "type": "uint256"
        }
      ],
      "name": "Harvested",
      "type": "event"
    },
    {
      "anonymous": false,
      "inputs": [
        {
          "indexed": false,
          "internalType": "uint256",
          "name": "upc",
          "type": "uint256"
        }
      ],
      "name": "Packed",
      "type": "event"
    },
    {
      "anonymous": false,
      "inputs": [
        {
          "indexed": false,
          "internalType": "uint256",
          "name": "upc",
          "type": "uint256"
        }
      ],
      "name": "Processed",
      "type": "event"
    },
    {
      "anonymous": false,
      "inputs": [
        {
          "indexed": false,
          "internalType": "uint256",
          "name": "upc",
          "type": "uint256"
        }
      ],
      "name": "Purchased",
      "type": "event"
    },
    {
      "anonymous": false,
      "inputs": [
        {
          "indexed": false,
          "internalType": "uint256",
          "name": "upc",
          "type": "uint256"
        }
      ],
      "name": "Received",
      "type": "event"
    },
    {
      "anonymous": false,
      "inputs": [
        {
          "indexed": true,
          "internalType": "address",
          "name": "account",
          "type": "address"
        }
      ],
      "name": "RetailerAdded",
      "type": "event"
    },
    {
      "anonymous": false,
      "inputs": [
        {
          "indexed": true,
          "internalType": "address",
          "name": "account",
          "type": "address"
        }
      ],
      "name": "RetailerRemoved",
      "type": "event"
    },
    {
      "anonymous": false,
      "inputs": [
        {
          "indexed": false,
          "internalType": "uint256",
          "name": "upc",
          "type": "uint256"
        }
      ],
      "name": "Shipped",
      "type": "event"
    },
    {
      "anonymous": false,
      "inputs": [
        {
          "indexed": false,
          "internalType": "uint256",
          "name": "upc",
          "type": "uint256"
        }
      ],
      "name": "Sold",
      "type": "event"
    },
    {
      "anonymous": false,
      "inputs": [
        {
          "indexed": true,
          "internalType": "address",
          "name": "oldOwner",
          "type": "address"
        },
        {
          "indexed": true,
          "internalType": "address",
          "name": "newOwner",
          "type": "address"
        }
      ],
      "name": "TransferOwnershipOfContract",
      "type": "event"
    },
    {
      "anonymous": false,
      "inputs": [
        {
          "indexed": true,
          "internalType": "address",
          "name": "oldOwner",
          "type": "address"
        },
        {
          "indexed": true,
          "internalType": "address",
          "name": "newOwner",
          "type": "address"
        }
      ],
      "name": "TransferOwnershipOfProduct",
      "type": "event"
    },
    {
      "inputs": [
        {
          "internalType": "address",
          "name": "account",
          "type": "address"
        }
      ],
      "name": "addConsumer",
      "outputs": [],
      "stateMutability": "nonpayable",
      "type": "function"
    },
    {
      "inputs": [
        {
          "internalType": "address",
          "name": "account",
          "type": "address"
        }
      ],
      "name": "addDistributor",
      "outputs": [],
      "stateMutability": "nonpayable",
      "type": "function"
    },
    {
      "inputs": [
        {
          "internalType": "address",
          "name": "account",
          "type": "address"
        }
      ],
      "name": "addFarmer",
      "outputs": [],
      "stateMutability": "nonpayable",
      "type": "function"
    },
    {
      "inputs": [
        {
          "internalType": "address",
          "name": "account",
          "type": "address"
        }
      ],
      "name": "addRetailer",
      "outputs": [],
      "stateMutability": "nonpayable",
      "type": "function"
    },
    {
      "inputs": [
        {
          "internalType": "address",
          "name": "account",
          "type": "address"
        }
      ],
      "name": "isConsumer",
      "outputs": [
        {
          "internalType": "bool",
          "name": "",
          "type": "bool"
        }
      ],
      "stateMutability": "view",
      "type": "function",
      "constant": true
    },
    {
      "inputs": [
        {
          "internalType": "address",
          "name": "account",
          "type": "address"
        }
      ],
      "name": "isDistributor",
      "outputs": [
        {
          "internalType": "bool",
          "name": "",
          "type": "bool"
        }
      ],
      "stateMutability": "view",
      "type": "function",
      "constant": true
    },
    {
      "inputs": [
        {
          "internalType": "address",
          "name": "account",
          "type": "address"
        }
      ],
      "name": "isFarmer",
      "outputs": [
        {
          "internalType": "bool",
          "name": "",
          "type": "bool"
        }
      ],
      "stateMutability": "view",
      "type": "function",
      "constant": true
    },
    {
      "inputs": [],
      "name": "isOwnerOfContract",
      "outputs": [
        {
          "internalType": "bool",
          "name": "",
          "type": "bool"
        }
      ],
      "stateMutability": "view",
      "type": "function",
      "constant": true
    },
    {
      "inputs": [
        {
          "internalType": "uint256",
          "name": "sku",
          "type": "uint256"
        }
      ],
      "name": "isOwnerOfProduct",
      "outputs": [
        {
          "internalType": "bool",
          "name": "",
          "type": "bool"
        }
      ],
      "stateMutability": "view",
      "type": "function",
      "constant": true
    },
    {
      "inputs": [
        {
          "internalType": "address",
          "name": "account",
          "type": "address"
        }
      ],
      "name": "isRetailer",
      "outputs": [
        {
          "internalType": "bool",
          "name": "",
          "type": "bool"
        }
      ],
      "stateMutability": "view",
      "type": "function",
      "constant": true
    },
    {
      "inputs": [],
      "name": "ownerOfContract",
      "outputs": [
        {
          "internalType": "address",
          "name": "",
          "type": "address"
        }
      ],
      "stateMutability": "view",
      "type": "function",
      "constant": true
    },
    {
      "inputs": [
        {
          "internalType": "uint256",
          "name": "sku",
          "type": "uint256"
        }
      ],
      "name": "ownerOfProduct",
      "outputs": [
        {
          "internalType": "address",
          "name": "",
          "type": "address"
        }
      ],
      "stateMutability": "view",
      "type": "function",
      "constant": true
    },
    {
      "inputs": [
        {
          "internalType": "uint256",
          "name": "",
          "type": "uint256"
        }
      ],
      "name": "owners",
      "outputs": [
        {
          "internalType": "address",
          "name": "",
          "type": "address"
        }
      ],
      "stateMutability": "view",
      "type": "function",
      "constant": true
    },
    {
      "inputs": [],
      "name": "renounceConsumer",
      "outputs": [],
      "stateMutability": "nonpayable",
      "type": "function"
    },
    {
      "inputs": [],
      "name": "renounceDistributor",
      "outputs": [],
      "stateMutability": "nonpayable",
      "type": "function"
    },
    {
      "inputs": [],
      "name": "renounceFarmer",
      "outputs": [],
      "stateMutability": "nonpayable",
      "type": "function"
    },
    {
      "inputs": [],
      "name": "renounceOwnershipOfContract",
      "outputs": [],
      "stateMutability": "nonpayable",
      "type": "function"
    },
    {
      "inputs": [
        {
          "internalType": "uint256",
          "name": "sku",
          "type": "uint256"
        }
      ],
      "name": "renounceOwnershipOfProduct",
      "outputs": [],
      "stateMutability": "nonpayable",
      "type": "function"
    },
    {
      "inputs": [],
      "name": "renounceRetailer",
      "outputs": [],
      "stateMutability": "nonpayable",
      "type": "function"
    },
    {
      "inputs": [
        {
          "internalType": "address",
          "name": "newOwner",
          "type": "address"
        }
      ],
      "name": "transferOwnershipOfContract",
      "outputs": [],
      "stateMutability": "nonpayable",
      "type": "function"
    },
    {
      "inputs": [
        {
          "internalType": "address",
          "name": "newOwner",
          "type": "address"
        },
        {
          "internalType": "uint256",
          "name": "sku",
          "type": "uint256"
        }
      ],
      "name": "transferOwnershipOfProduct",
      "outputs": [],
      "stateMutability": "nonpayable",
      "type": "function"
    },
    {
      "inputs": [],
      "name": "kill",
      "outputs": [],
      "stateMutability": "nonpayable",
      "type": "function"
    },
    {
      "inputs": [
        {
          "internalType": "uint256",
          "name": "_upc",
          "type": "uint256"
        }
      ],
      "name": "getItem",
      "outputs": [
        {
          "components": [
            {
              "internalType": "uint256",
              "name": "sku",
              "type": "uint256"
            },
            {
              "internalType": "uint256",
              "name": "upc",
              "type": "uint256"
            },
            {
              "internalType": "address",
              "name": "ownerID",
              "type": "address"
            },
            {
              "internalType": "address",
              "name": "originFarmerID",
              "type": "address"
            },
            {
              "internalType": "string",
              "name": "originFarmName",
              "type": "string"
            },
            {
              "internalType": "string",
              "name": "originFarmInformation",
              "type": "string"
            },
            {
              "internalType": "string",
              "name": "originFarmLatitude",
              "type": "string"
            },
            {
              "internalType": "string",
              "name": "originFarmLongitude",
              "type": "string"
            },
            {
              "internalType": "uint256",
              "name": "productID",
              "type": "uint256"
            },
            {
              "internalType": "string",
              "name": "productNotes",
              "type": "string"
            },
            {
              "internalType": "uint256",
              "name": "productPrice",
              "type": "uint256"
            },
            {
              "internalType": "enum SupplyChain.State",
              "name": "itemState",
              "type": "uint8"
            },
            {
              "internalType": "address",
              "name": "distributorID",
              "type": "address"
            },
            {
              "internalType": "address",
              "name": "retailerID",
              "type": "address"
            },
            {
              "internalType": "address",
              "name": "consumerID",
              "type": "address"
            }
          ],
          "internalType": "struct SupplyChain.Item",
          "name": "",
          "type": "tuple"
        }
      ],
      "stateMutability": "view",
      "type": "function",
      "constant": true
    },
    {
      "inputs": [],
      "name": "getCurrentSku",
      "outputs": [
        {
          "internalType": "uint256",
          "name": "",
          "type": "uint256"
        }
      ],
      "stateMutability": "view",
      "type": "function",
      "constant": true
    },
    {
      "inputs": [
        {
          "internalType": "string",
          "name": "_originFarmName",
          "type": "string"
        },
        {
          "internalType": "string",
          "name": "_originFarmInformation",
          "type": "string"
        },
        {
          "internalType": "string",
          "name": "_originFarmLatitude",
          "type": "string"
        },
        {
          "internalType": "string",
          "name": "_originFarmLongitude",
          "type": "string"
        },
        {
          "internalType": "string",
          "name": "_productNotes",
          "type": "string"
        }
      ],
      "name": "harvestItem",
      "outputs": [],
      "stateMutability": "nonpayable",
      "type": "function"
    },
    {
      "inputs": [
        {
          "internalType": "uint256",
          "name": "_upc",
          "type": "uint256"
        }
      ],
      "name": "processItem",
      "outputs": [],
      "stateMutability": "nonpayable",
      "type": "function"
    },
    {
      "inputs": [
        {
          "internalType": "uint256",
          "name": "_upc",
          "type": "uint256"
        }
      ],
      "name": "packItem",
      "outputs": [],
      "stateMutability": "nonpayable",
      "type": "function"
    },
    {
      "inputs": [
        {
          "internalType": "uint256",
          "name": "_upc",
          "type": "uint256"
        },
        {
          "internalType": "uint256",
          "name": "_price",
          "type": "uint256"
        }
      ],
      "name": "sellItem",
      "outputs": [],
      "stateMutability": "nonpayable",
      "type": "function"
    },
    {
      "inputs": [
        {
          "internalType": "uint256",
          "name": "_upc",
          "type": "uint256"
        }
      ],
      "name": "buyItem",
      "outputs": [],
      "stateMutability": "payable",
      "type": "function",
      "payable": true
    },
    {
      "inputs": [
        {
          "internalType": "uint256",
          "name": "_upc",
          "type": "uint256"
        },
        {
          "internalType": "address",
          "name": "_retailerID",
          "type": "address"
        }
      ],
      "name": "shipItem",
      "outputs": [],
      "stateMutability": "nonpayable",
      "type": "function"
    },
    {
      "inputs": [
        {
          "internalType": "uint256",
          "name": "_upc",
          "type": "uint256"
        }
      ],
      "name": "receiveItem",
      "outputs": [],
      "stateMutability": "nonpayable",
      "type": "function"
    },
    {
      "inputs": [
        {
          "internalType": "uint256",
          "name": "_upc",
          "type": "uint256"
        }
      ],
      "name": "purchaseItem",
      "outputs": [],
      "stateMutability": "nonpayable",
      "type": "function"
    }
  ],
  "bytecode": "0x6080604052336000806101000a81548173ffffffffffffffffffffffffffffffffffffffff021916908373ffffffffffffffffffffffffffffffffffffffff16021790555060008054906101000a900473ffffffffffffffffffffffffffffffffffffffff1673ffffffffffffffffffffffffffffffffffffffff16600073ffffffffffffffffffffffffffffffffffffffff167f8e75c9e234cc9e7f1542a5e305806a27e127944eab53cb7deb6e3eba4d7d263b60405160405180910390a3600160078190555060016006819055506133bb806100de6000396000f3fe6080604052600436106101e35760003560e01c806380fc0ce411610102578063a26be99911610095578063d38ea5bf11610064578063d38ea5bf146106b0578063db0e6a2f146106d9578063e7fb74c7146106f0578063f30fc4801461070c576101e3565b8063a26be999146105f6578063b94290691461061f578063bb4f288d1461065c578063c1147b3714610685576101e3565b80638f0c86fa116100d15780638f0c86fa1461052857806390db5118146105655780639247b5c6146105905780639d9505b2146105cd576101e3565b806380fc0ce414610482578063834ff7391461049957806387df8439146104d65780638ec4f505146104ff576101e3565b80635da09b881161017a57806365c9829c1161014957806365c9829c146103ca5780637250e224146104075780637342048a1461043057806380c3f96d14610459576101e3565b80635da09b88146103485780635f8b14301461038557806361e6982d1461039c578063644241db146103b3576101e3565b80633129e773116101b65780633129e773146102a057806341c0e1b5146102dd578063468229ae146102f457806349dae7661461031f576101e3565b8063025e7c27146101e8578063112940f9146102255780632d9235611461024e5780633129bc8814610277575b600080fd5b3480156101f457600080fd5b5061020f600480360381019061020a9190612d88565b610735565b60405161021c919061301b565b60405180910390f35b34801561023157600080fd5b5061024c60048036038101906102479190612c34565b610768565b005b34801561025a57600080fd5b5061027560048036038101906102709190612ded565b610774565b005b34801561028357600080fd5b5061029e60048036038101906102999190612c99565b6108f7565b005b3480156102ac57600080fd5b506102c760048036038101906102c29190612d88565b610d22565b6040516102d49190613051565b60405180910390f35b3480156102e957600080fd5b506102f261128d565b005b34801561030057600080fd5b506103096112ea565b604051610316919061301b565b60405180910390f35b34801561032b57600080fd5b5061034660048036038101906103419190612d88565b611313565b005b34801561035457600080fd5b5061036f600480360381019061036a9190612c34565b61147a565b60405161037c9190613036565b60405180910390f35b34801561039157600080fd5b5061039a611497565b005b3480156103a857600080fd5b506103b1611566565b005b3480156103bf57600080fd5b506103c8611571565b005b3480156103d657600080fd5b506103f160048036038101906103ec9190612d88565b61157c565b6040516103fe9190613036565b60405180910390f35b34801561041357600080fd5b5061042e60048036038101906104299190612c34565b6115e7565b005b34801561043c57600080fd5b5061045760048036038101906104529190612c34565b6115f3565b005b34801561046557600080fd5b50610480600480360381019061047b9190612c34565b611610565b005b34801561048e57600080fd5b5061049761161c565b005b3480156104a557600080fd5b506104c060048036038101906104bb9190612c34565b611627565b6040516104cd9190613036565b60405180910390f35b3480156104e257600080fd5b506104fd60048036038101906104f89190612d88565b611644565b005b34801561050b57600080fd5b5061052660048036038101906105219190612c34565b61173c565b005b34801561053457600080fd5b5061054f600480360381019061054a9190612c34565b611748565b60405161055c9190613036565b60405180910390f35b34801561057157600080fd5b5061057a611765565b6040516105879190613036565b60405180910390f35b34801561059c57600080fd5b506105b760048036038101906105b29190612d88565b6117bc565b6040516105c4919061301b565b60405180910390f35b3480156105d957600080fd5b506105f460048036038101906105ef9190612c5d565b6117f9565b005b34801561060257600080fd5b5061061d60048036038101906106189190612d88565b61181b565b005b34801561062b57600080fd5b5061064660048036038101906106419190612c34565b611a31565b6040516106539190613036565b60405180910390f35b34801561066857600080fd5b50610683600480360381019061067e9190612db1565b611a4e565b005b34801561069157600080fd5b5061069a611bf7565b6040516106a79190613073565b60405180910390f35b3480156106bc57600080fd5b506106d760048036038101906106d29190612d88565b611c01565b005b3480156106e557600080fd5b506106ee611dfe565b005b61070a60048036038101906107059190612d88565b611e09565b005b34801561071857600080fd5b50610733600480360381019061072e9190612d88565b61215a565b005b60016020528060005260406000206000915054906101000a900473ffffffffffffffffffffffffffffffffffffffff1681565b610771816122c1565b50565b81600260078111156107af577f4e487b7100000000000000000000000000000000000000000000000000000000600052602160045260246000fd5b60086000838152602001908152602001600020600b0160009054906101000a900460ff16600781111561080b577f4e487b7100000000000000000000000000000000000000000000000000000000600052602160045260246000fd5b1461081557600080fd5b8261081f8161157c565b61082857600080fd5b61083133611a31565b61083a57600080fd5b600360086000868152602001908152602001600020600b0160006101000a81548160ff0219169083600781111561089a577f4e487b7100000000000000000000000000000000000000000000000000000000600052602160045260246000fd5b02179055508260086000868152602001908152602001600020600a01819055507fa96ae0fc3224ebd79eebfe54bd130cc9cb94416cddd1f2386115e00b72532468846040516108e99190613073565b60405180910390a150505050565b61090033611a31565b61090957600080fd5b60006007549050604051806101e001604052808281526020018281526020013373ffffffffffffffffffffffffffffffffffffffff1681526020013373ffffffffffffffffffffffffffffffffffffffff168152602001878152602001868152602001858152602001848152602001600754815260200183815260200160008152602001600060078111156109c7577f4e487b7100000000000000000000000000000000000000000000000000000000600052602160045260246000fd5b8152602001600073ffffffffffffffffffffffffffffffffffffffff168152602001600073ffffffffffffffffffffffffffffffffffffffff168152602001600073ffffffffffffffffffffffffffffffffffffffff1681525060086000838152602001908152602001600020600082015181600001556020820151816001015560408201518160020160006101000a81548173ffffffffffffffffffffffffffffffffffffffff021916908373ffffffffffffffffffffffffffffffffffffffff16021790555060608201518160030160006101000a81548173ffffffffffffffffffffffffffffffffffffffff021916908373ffffffffffffffffffffffffffffffffffffffff1602179055506080820151816004019080519060200190610af29291906129e3565b5060a0820151816005019080519060200190610b0f9291906129e3565b5060c0820151816006019080519060200190610b2c9291906129e3565b5060e0820151816007019080519060200190610b499291906129e3565b506101008201518160080155610120820151816009019080519060200190610b729291906129e3565b5061014082015181600a015561016082015181600b0160006101000a81548160ff02191690836007811115610bd0577f4e487b7100000000000000000000000000000000000000000000000000000000600052602160045260246000fd5b021790555061018082015181600b0160016101000a81548173ffffffffffffffffffffffffffffffffffffffff021916908373ffffffffffffffffffffffffffffffffffffffff1602179055506101a082015181600c0160006101000a81548173ffffffffffffffffffffffffffffffffffffffff021916908373ffffffffffffffffffffffffffffffffffffffff1602179055506101c082015181600d0160006101000a81548173ffffffffffffffffffffffffffffffffffffffff021916908373ffffffffffffffffffffffffffffffffffffffff160217905550905050610cb98161231b565b6001600754610cc8919061310b565b6007819055506001600654610cdd919061310b565b6006819055507f8e55ccfc9778ff8eba1646d765cf1982537ce0f9257054a17b48aad74525018381604051610d129190613073565b60405180910390a1505050505050565b610d2a612a69565b600060086000848152602001908152602001600020604051806101e001604052908160008201548152602001600182015481526020016002820160009054906101000a900473ffffffffffffffffffffffffffffffffffffffff1673ffffffffffffffffffffffffffffffffffffffff1673ffffffffffffffffffffffffffffffffffffffff1681526020016003820160009054906101000a900473ffffffffffffffffffffffffffffffffffffffff1673ffffffffffffffffffffffffffffffffffffffff1673ffffffffffffffffffffffffffffffffffffffff168152602001600482018054610e1b90613244565b80601f0160208091040260200160405190810160405280929190818152602001828054610e4790613244565b8015610e945780601f10610e6957610100808354040283529160200191610e94565b820191906000526020600020905b815481529060010190602001808311610e7757829003601f168201915b50505050508152602001600582018054610ead90613244565b80601f0160208091040260200160405190810160405280929190818152602001828054610ed990613244565b8015610f265780601f10610efb57610100808354040283529160200191610f26565b820191906000526020600020905b815481529060010190602001808311610f0957829003601f168201915b50505050508152602001600682018054610f3f90613244565b80601f0160208091040260200160405190810160405280929190818152602001828054610f6b90613244565b8015610fb85780601f10610f8d57610100808354040283529160200191610fb8565b820191906000526020600020905b815481529060010190602001808311610f9b57829003601f168201915b50505050508152602001600782018054610fd190613244565b80601f0160208091040260200160405190810160405280929190818152602001828054610ffd90613244565b801561104a5780601f1061101f5761010080835404028352916020019161104a565b820191906000526020600020905b81548152906001019060200180831161102d57829003601f168201915b505050505081526020016008820154815260200160098201805461106d90613244565b80601f016020809104026020016040519081016040528092919081815260200182805461109990613244565b80156110e65780601f106110bb576101008083540402835291602001916110e6565b820191906000526020600020905b8154815290600101906020018083116110c957829003601f168201915b50505050508152602001600a8201548152602001600b820160009054906101000a900460ff166007811115611144577f4e487b7100000000000000000000000000000000000000000000000000000000600052602160045260246000fd5b600781111561117c577f4e487b7100000000000000000000000000000000000000000000000000000000600052602160045260246000fd5b8152602001600b820160019054906101000a900473ffffffffffffffffffffffffffffffffffffffff1673ffffffffffffffffffffffffffffffffffffffff1673ffffffffffffffffffffffffffffffffffffffff168152602001600c820160009054906101000a900473ffffffffffffffffffffffffffffffffffffffff1673ffffffffffffffffffffffffffffffffffffffff1673ffffffffffffffffffffffffffffffffffffffff168152602001600d820160009054906101000a900473ffffffffffffffffffffffffffffffffffffffff1673ffffffffffffffffffffffffffffffffffffffff1673ffffffffffffffffffffffffffffffffffffffff1681525050905080915050919050565b6112956112ea565b73ffffffffffffffffffffffffffffffffffffffff163373ffffffffffffffffffffffffffffffffffffffff1614156112e8576112d06112ea565b73ffffffffffffffffffffffffffffffffffffffff16ff5b565b60008060009054906101000a900473ffffffffffffffffffffffffffffffffffffffff16905090565b806000600781111561134e577f4e487b7100000000000000000000000000000000000000000000000000000000600052602160045260246000fd5b60086000838152602001908152602001600020600b0160009054906101000a900460ff1660078111156113aa577f4e487b7100000000000000000000000000000000000000000000000000000000600052602160045260246000fd5b146113b457600080fd5b816113be8161157c565b6113c757600080fd5b6113d033611a31565b6113d957600080fd5b600160086000858152602001908152602001600020600b0160006101000a81548160ff02191690836007811115611439577f4e487b7100000000000000000000000000000000000000000000000000000000600052602160045260246000fd5b02179055507f5afe3b1bf87069693c075da5c22a98d63d1aef98a30dbbe538d0781a98b77ee58360405161146d9190613073565b60405180910390a1505050565b600061149082600461237090919063ffffffff16565b9050919050565b61149f611765565b6114a857600080fd5b600073ffffffffffffffffffffffffffffffffffffffff1660008054906101000a900473ffffffffffffffffffffffffffffffffffffffff1673ffffffffffffffffffffffffffffffffffffffff167f8e75c9e234cc9e7f1542a5e305806a27e127944eab53cb7deb6e3eba4d7d263b60405160405180910390a360008060006101000a81548173ffffffffffffffffffffffffffffffffffffffff021916908373ffffffffffffffffffffffffffffffffffffffff160217905550565b61156f33612402565b565b61157a3361245c565b565b60006001600083815260200190815260200160002060009054906101000a900473ffffffffffffffffffffffffffffffffffffffff1673ffffffffffffffffffffffffffffffffffffffff163373ffffffffffffffffffffffffffffffffffffffff16149050919050565b6115f0816124b6565b50565b6115fb611765565b61160457600080fd5b61160d81612510565b50565b61161981612607565b50565b61162533612661565b565b600061163d82600561237090919063ffffffff16565b9050919050565b8061164e8161157c565b61165757600080fd5b600073ffffffffffffffffffffffffffffffffffffffff166001600084815260200190815260200160002060009054906101000a900473ffffffffffffffffffffffffffffffffffffffff1673ffffffffffffffffffffffffffffffffffffffff167f16827766d0b22dde3f56dfe00b9d5cf91e0f19b1d8515a571e42b7b35a12d17260405160405180910390a360006001600084815260200190815260200160002060006101000a81548173ffffffffffffffffffffffffffffffffffffffff021916908373ffffffffffffffffffffffffffffffffffffffff1602179055505050565b611745816126bb565b50565b600061175e82600361237090919063ffffffff16565b9050919050565b60008060009054906101000a900473ffffffffffffffffffffffffffffffffffffffff1673ffffffffffffffffffffffffffffffffffffffff163373ffffffffffffffffffffffffffffffffffffffff1614905090565b60006001600083815260200190815260200160002060009054906101000a900473ffffffffffffffffffffffffffffffffffffffff169050919050565b806118038161157c565b61180c57600080fd5b6118168383612715565b505050565b8060056007811115611856577f4e487b7100000000000000000000000000000000000000000000000000000000600052602160045260246000fd5b60086000838152602001908152602001600020600b0160009054906101000a900460ff1660078111156118b2577f4e487b7100000000000000000000000000000000000000000000000000000000600052602160045260246000fd5b146118bc57600080fd5b6118c53361147a565b6118ce57600080fd5b3373ffffffffffffffffffffffffffffffffffffffff1660086000848152602001908152602001600020600c0160009054906101000a900473ffffffffffffffffffffffffffffffffffffffff1673ffffffffffffffffffffffffffffffffffffffff161461193c57600080fd5b600660086000848152602001908152602001600020600b0160006101000a81548160ff0219169083600781111561199c577f4e487b7100000000000000000000000000000000000000000000000000000000600052602160045260246000fd5b0217905550336008600084815260200190815260200160002060020160006101000a81548173ffffffffffffffffffffffffffffffffffffffff021916908373ffffffffffffffffffffffffffffffffffffffff1602179055507fa8142743f8f70a4c26f3691cf4ed59718381fb2f18070ec52be1f1022d85555782604051611a259190613073565b60405180910390a15050565b6000611a4782600261237090919063ffffffff16565b9050919050565b8160046007811115611a89577f4e487b7100000000000000000000000000000000000000000000000000000000600052602160045260246000fd5b60086000838152602001908152602001600020600b0160009054906101000a900460ff166007811115611ae5577f4e487b7100000000000000000000000000000000000000000000000000000000600052602160045260246000fd5b14611aef57600080fd5b611af833611748565b611b0157600080fd5b600560086000858152602001908152602001600020600b0160006101000a81548160ff02191690836007811115611b61577f4e487b7100000000000000000000000000000000000000000000000000000000600052602160045260246000fd5b02179055508160086000858152602001908152602001600020600c0160006101000a81548173ffffffffffffffffffffffffffffffffffffffff021916908373ffffffffffffffffffffffffffffffffffffffff1602179055507ff00b9a5725b80c54016f42114f6ed7792d22eecb116011c4afac29c57bef6c9583604051611bea9190613073565b60405180910390a1505050565b6000600754905090565b8060066007811115611c3c577f4e487b7100000000000000000000000000000000000000000000000000000000600052602160045260246000fd5b60086000838152602001908152602001600020600b0160009054906101000a900460ff166007811115611c98577f4e487b7100000000000000000000000000000000000000000000000000000000600052602160045260246000fd5b14611ca257600080fd5b611cab33611627565b611cb457600080fd5b600760086000848152602001908152602001600020600b0160006101000a81548160ff02191690836007811115611d14577f4e487b7100000000000000000000000000000000000000000000000000000000600052602160045260246000fd5b02179055503360086000848152602001908152602001600020600d0160006101000a81548173ffffffffffffffffffffffffffffffffffffffff021916908373ffffffffffffffffffffffffffffffffffffffff160217905550336008600084815260200190815260200160002060020160006101000a81548173ffffffffffffffffffffffffffffffffffffffff021916908373ffffffffffffffffffffffffffffffffffffffff1602179055507f653d56639fee6b566a5c804764e9689de38645f0b733df89a36a1b7b42173dd882604051611df29190613073565b60405180910390a15050565b611e0733612832565b565b8060036007811115611e44577f4e487b7100000000000000000000000000000000000000000000000000000000600052602160045260246000fd5b60086000838152602001908152602001600020600b0160009054906101000a900460ff166007811115611ea0577f4e487b7100000000000000000000000000000000000000000000000000000000600052602160045260246000fd5b14611eaa57600080fd5b8180341015611eb857600080fd5b82611ec233611748565b611ecb57600080fd5b336008600086815260200190815260200160002060020160006101000a81548173ffffffffffffffffffffffffffffffffffffffff021916908373ffffffffffffffffffffffffffffffffffffffff1602179055503360086000868152602001908152602001600020600b0160016101000a81548173ffffffffffffffffffffffffffffffffffffffff021916908373ffffffffffffffffffffffffffffffffffffffff160217905550600460086000868152602001908152602001600020600b0160006101000a81548160ff02191690836007811115611fd5577f4e487b7100000000000000000000000000000000000000000000000000000000600052602160045260246000fd5b0217905550600060086000868152602001908152602001600020600a015490506008600086815260200190815260200160002060030160009054906101000a900473ffffffffffffffffffffffffffffffffffffffff1673ffffffffffffffffffffffffffffffffffffffff166108fc829081150290604051600060405180830381858888f19350505050158015612071573d6000803e3d6000fd5b507f92f64ca637d023f354075a4be751b169c1a8a9ccb6d33cdd0cb3520543995727856040516120a19190613073565b60405180910390a150600060086000838152602001908152602001600020600a01549050600081346120d39190613161565b905060086000848152602001908152602001600020600d0160009054906101000a900473ffffffffffffffffffffffffffffffffffffffff1673ffffffffffffffffffffffffffffffffffffffff166108fc829081150290604051600060405180830381858888f19350505050158015612151573d6000803e3d6000fd5b50505050505050565b8060016007811115612195577f4e487b7100000000000000000000000000000000000000000000000000000000600052602160045260246000fd5b60086000838152602001908152602001600020600b0160009054906101000a900460ff1660078111156121f1577f4e487b7100000000000000000000000000000000000000000000000000000000600052602160045260246000fd5b146121fb57600080fd5b816122058161157c565b61220e57600080fd5b61221733611a31565b61222057600080fd5b600260086000858152602001908152602001600020600b0160006101000a81548160ff02191690836007811115612280577f4e487b7100000000000000000000000000000000000000000000000000000000600052602160045260246000fd5b02179055507f9b3b66e2380b690bae22c73ef1428fb0c91e72fe14a4b6defa13035214187aff836040516122b49190613073565b60405180910390a1505050565b6122d581600561288c90919063ffffffff16565b8073ffffffffffffffffffffffffffffffffffffffff167f28b26e7a3d20aedbc5f8f2ebf7da671c0491723a2b78f47a097b0e46dee0714260405160405180910390a250565b336001600083815260200190815260200160002060006101000a81548173ffffffffffffffffffffffffffffffffffffffff021916908373ffffffffffffffffffffffffffffffffffffffff16021790555050565b60008073ffffffffffffffffffffffffffffffffffffffff168273ffffffffffffffffffffffffffffffffffffffff1614156123ab57600080fd5b8260000160008373ffffffffffffffffffffffffffffffffffffffff1673ffffffffffffffffffffffffffffffffffffffff16815260200190815260200160002060009054906101000a900460ff16905092915050565b61241681600561293890919063ffffffff16565b8073ffffffffffffffffffffffffffffffffffffffff167fe3f5ed5f263f1f01764a96edfc7d025f511ec5f7d180e8816908b78bcf74f09860405160405180910390a250565b61247081600361293890919063ffffffff16565b8073ffffffffffffffffffffffffffffffffffffffff167f126174f6cf49c81cdb4a9214c6b8f037bef55b4ec31e4fc776cea2a1c8a88d5960405160405180910390a250565b6124ca81600361288c90919063ffffffff16565b8073ffffffffffffffffffffffffffffffffffffffff167fddbf200aa634dc3fb81cfd68583dd1040d1c751d335e1d86b631bde3e977fea860405160405180910390a250565b600073ffffffffffffffffffffffffffffffffffffffff168173ffffffffffffffffffffffffffffffffffffffff16141561254a57600080fd5b8073ffffffffffffffffffffffffffffffffffffffff1660008054906101000a900473ffffffffffffffffffffffffffffffffffffffff1673ffffffffffffffffffffffffffffffffffffffff167f8e75c9e234cc9e7f1542a5e305806a27e127944eab53cb7deb6e3eba4d7d263b60405160405180910390a3806000806101000a81548173ffffffffffffffffffffffffffffffffffffffff021916908373ffffffffffffffffffffffffffffffffffffffff16021790555050565b61261b81600261288c90919063ffffffff16565b8073ffffffffffffffffffffffffffffffffffffffff167f2e0ded4123377a3c2bc9a26f1717655a129e2f20752924d42e730ec89c83dbd060405160405180910390a250565b61267581600261293890919063ffffffff16565b8073ffffffffffffffffffffffffffffffffffffffff167fa5e0f060af304ab17dd418c7927e3da3ae7868189bf387aee09ab179ccc572f260405160405180910390a250565b6126cf81600461288c90919063ffffffff16565b8073ffffffffffffffffffffffffffffffffffffffff167f71ae26cad02663e3d92efd6ec56031a80d74a20c0ab4183faa8bf262261c9baa60405160405180910390a250565b600073ffffffffffffffffffffffffffffffffffffffff168273ffffffffffffffffffffffffffffffffffffffff16141561274f57600080fd5b8173ffffffffffffffffffffffffffffffffffffffff166001600083815260200190815260200160002060009054906101000a900473ffffffffffffffffffffffffffffffffffffffff1673ffffffffffffffffffffffffffffffffffffffff167f16827766d0b22dde3f56dfe00b9d5cf91e0f19b1d8515a571e42b7b35a12d17260405160405180910390a3816001600083815260200190815260200160002060006101000a81548173ffffffffffffffffffffffffffffffffffffffff021916908373ffffffffffffffffffffffffffffffffffffffff1602179055505050565b61284681600461293890919063ffffffff16565b8073ffffffffffffffffffffffffffffffffffffffff167fdb7176e79cffef81cb01767dd0447a0b24bb72ca9778d4b245581086b2a7e6db60405160405180910390a250565b600073ffffffffffffffffffffffffffffffffffffffff168173ffffffffffffffffffffffffffffffffffffffff1614156128c657600080fd5b6128d08282612370565b156128da57600080fd5b60018260000160008373ffffffffffffffffffffffffffffffffffffffff1673ffffffffffffffffffffffffffffffffffffffff16815260200190815260200160002060006101000a81548160ff0219169083151502179055505050565b600073ffffffffffffffffffffffffffffffffffffffff168173ffffffffffffffffffffffffffffffffffffffff16141561297257600080fd5b61297c8282612370565b61298557600080fd5b60008260000160008373ffffffffffffffffffffffffffffffffffffffff1673ffffffffffffffffffffffffffffffffffffffff16815260200190815260200160002060006101000a81548160ff0219169083151502179055505050565b8280546129ef90613244565b90600052602060002090601f016020900481019282612a115760008555612a58565b82601f10612a2a57805160ff1916838001178555612a58565b82800160010185558215612a58579182015b82811115612a57578251825591602001919060010190612a3c565b5b509050612a659190612b85565b5090565b604051806101e001604052806000815260200160008152602001600073ffffffffffffffffffffffffffffffffffffffff168152602001600073ffffffffffffffffffffffffffffffffffffffff1681526020016060815260200160608152602001606081526020016060815260200160008152602001606081526020016000815260200160006007811115612b28577f4e487b7100000000000000000000000000000000000000000000000000000000600052602160045260246000fd5b8152602001600073ffffffffffffffffffffffffffffffffffffffff168152602001600073ffffffffffffffffffffffffffffffffffffffff168152602001600073ffffffffffffffffffffffffffffffffffffffff1681525090565b5b80821115612b9e576000816000905550600101612b86565b5090565b6000612bb5612bb0846130bf565b61308e565b905082815260208101848484011115612bcd57600080fd5b612bd8848285613202565b509392505050565b600081359050612bef81613357565b92915050565b600082601f830112612c0657600080fd5b8135612c16848260208601612ba2565b91505092915050565b600081359050612c2e8161336e565b92915050565b600060208284031215612c4657600080fd5b6000612c5484828501612be0565b91505092915050565b60008060408385031215612c7057600080fd5b6000612c7e85828601612be0565b9250506020612c8f85828601612c1f565b9150509250929050565b600080600080600060a08688031215612cb157600080fd5b600086013567ffffffffffffffff811115612ccb57600080fd5b612cd788828901612bf5565b955050602086013567ffffffffffffffff811115612cf457600080fd5b612d0088828901612bf5565b945050604086013567ffffffffffffffff811115612d1d57600080fd5b612d2988828901612bf5565b935050606086013567ffffffffffffffff811115612d4657600080fd5b612d5288828901612bf5565b925050608086013567ffffffffffffffff811115612d6f57600080fd5b612d7b88828901612bf5565b9150509295509295909350565b600060208284031215612d9a57600080fd5b6000612da884828501612c1f565b91505092915050565b60008060408385031215612dc457600080fd5b6000612dd285828601612c1f565b9250506020612de385828601612be0565b9150509250929050565b60008060408385031215612e0057600080fd5b6000612e0e85828601612c1f565b9250506020612e1f85828601612c1f565b9150509250929050565b612e3281613195565b82525050565b612e4181613195565b82525050565b612e50816131a7565b82525050565b612e5f816131f0565b82525050565b6000612e70826130ef565b612e7a81856130fa565b9350612e8a818560208601613211565b612e9381613332565b840191505092915050565b60006101e083016000830151612eb76000860182612ffd565b506020830151612eca6020860182612ffd565b506040830151612edd6040860182612e29565b506060830151612ef06060860182612e29565b5060808301518482036080860152612f088282612e65565b91505060a083015184820360a0860152612f228282612e65565b91505060c083015184820360c0860152612f3c8282612e65565b91505060e083015184820360e0860152612f568282612e65565b915050610100830151612f6d610100860182612ffd565b50610120830151848203610120860152612f878282612e65565b915050610140830151612f9e610140860182612ffd565b50610160830151612fb3610160860182612e56565b50610180830151612fc8610180860182612e29565b506101a0830151612fdd6101a0860182612e29565b506101c0830151612ff26101c0860182612e29565b508091505092915050565b613006816131e6565b82525050565b613015816131e6565b82525050565b60006020820190506130306000830184612e38565b92915050565b600060208201905061304b6000830184612e47565b92915050565b6000602082019050818103600083015261306b8184612e9e565b905092915050565b6000602082019050613088600083018461300c565b92915050565b6000604051905081810181811067ffffffffffffffff821117156130b5576130b4613303565b5b8060405250919050565b600067ffffffffffffffff8211156130da576130d9613303565b5b601f19601f8301169050602081019050919050565b600081519050919050565b600082825260208201905092915050565b6000613116826131e6565b9150613121836131e6565b9250827fffffffffffffffffffffffffffffffffffffffffffffffffffffffffffffffff0382111561315657613155613276565b5b828201905092915050565b600061316c826131e6565b9150613177836131e6565b92508282101561318a57613189613276565b5b828203905092915050565b60006131a0826131c6565b9050919050565b60008115159050919050565b60008190506131c182613343565b919050565b600073ffffffffffffffffffffffffffffffffffffffff82169050919050565b6000819050919050565b60006131fb826131b3565b9050919050565b82818337600083830152505050565b60005b8381101561322f578082015181840152602081019050613214565b8381111561323e576000848401525b50505050565b6000600282049050600182168061325c57607f821691505b602082108114156132705761326f6132d4565b5b50919050565b7f4e487b7100000000000000000000000000000000000000000000000000000000600052601160045260246000fd5b7f4e487b7100000000000000000000000000000000000000000000000000000000600052602160045260246000fd5b7f4e487b7100000000000000000000000000000000000000000000000000000000600052602260045260246000fd5b7f4e487b7100000000000000000000000000000000000000000000000000000000600052604160045260246000fd5b6000601f19601f8301169050919050565b60088110613354576133536132a5565b5b50565b61336081613195565b811461336b57600080fd5b50565b613377816131e6565b811461338257600080fd5b5056fea2646970667358221220317753b3fa067dc7f218a079abacd25ee996e0770b55c79d6c2fd0a72a7f90ed64736f6c63430008000033",
  "immutableReferences": {},
  "source": "// SPDX-License-Identifier: MIT\npragma solidity ^0.8.0;\n\nimport \"../core/Ownable.sol\";\nimport \"../accessControl/FarmerRole.sol\";\nimport \"../accessControl/DistributorRole.sol\";\nimport \"../accessControl/RetailerRole.sol\";\nimport \"../accessControl/ConsumerRole.sol\";\n\n// Define a contract 'Supplychain'\ncontract SupplyChain is Ownable, FarmerRole, DistributorRole, RetailerRole, ConsumerRole {\n  // Define a variable called 'upc' for Universal Product Code (UPC)\n  uint  upc;\n\n  // Define a variable called 'sku' for Stock Keeping Unit (SKU)\n  uint  sku;\n\n  // Define a public mapping 'items' that maps the UPC to an Item.\n  mapping (uint => Item) items;\n\n  // Define a public mapping 'itemsHistory' that maps the UPC to an array of TxHash, \n  // that track its journey through the supply chain -- to be sent from DApp.\n  mapping (uint => string[]) itemsHistory;\n  \n  // Define enum 'State' with the following values:\n  enum State \n  { \n    Harvested,  // 0\n    Processed,  // 1\n    Packed,     // 2\n    ForSale,    // 3\n    Sold,       // 4\n    Shipped,    // 5\n    Received,   // 6\n    Purchased   // 7\n    }\n\n  State constant defaultState = State.Harvested;\n\n  // Define a struct 'Item' with the following fields:\n  struct Item {\n    uint    sku;  // Stock Keeping Unit (SKU)\n    uint    upc; // Universal Product Code (UPC), generated by the Farmer, goes on the package, can be verified by the Consumer\n    address ownerID;  // Metamask-Ethereum address of the current owner as the product moves through 8 stages\n    address originFarmerID; // Metamask-Ethereum address of the Farmer\n    string  originFarmName; // Farmer Name\n    string  originFarmInformation;  // Farmer Information\n    string  originFarmLatitude; // Farm Latitude\n    string  originFarmLongitude;  // Farm Longitude\n    uint    productID;  // Product ID potentially a combination of upc + sku\n    string  productNotes; // Product Notes\n    uint    productPrice; // Product Price\n    State   itemState;  // Product State as represented in the enum above\n    address distributorID;  // Metamask-Ethereum address of the Distributor\n    address retailerID; // Metamask-Ethereum address of the Retailer\n    address consumerID; // Metamask-Ethereum address of the Consumer\n  }\n\n  // Define 8 events with the same 8 state values and accept 'upc' as input argument\n  event Harvested(uint upc);\n  event Processed(uint upc);\n  event Packed(uint upc);\n  event ForSale(uint upc);\n  event Sold(uint upc);\n  event Shipped(uint upc);\n  event Received(uint upc);\n  event Purchased(uint upc);\n\n  // Define a modifer that verifies the Caller\n  modifier verifyCaller (address _address) {\n    require(msg.sender == _address); \n    _;\n  }\n\n  // Define a modifier that checks if the paid amount is sufficient to cover the price\n  modifier paidEnough(uint _price) { \n    require(msg.value >= _price); \n    _;\n  }\n  \n  // Define a modifier that checks the price and refunds the remaining balance\n  modifier checkValue(uint _upc) {\n    _;\n    uint _price = items[_upc].productPrice;\n    uint amountToReturn = msg.value - _price;\n    payable(items[_upc].consumerID).transfer(amountToReturn);\n  }\n\n  // Define a modifier that checks if an item.state of a upc is Harvested\n  modifier harvested(uint _upc) {\n    require(items[_upc].itemState == State.Harvested);\n    _;\n  }\n\n  // Define a modifier that checks if an item.state of a upc is Processed\n  modifier processed(uint _upc) {\n    require(items[_upc].itemState == State.Processed);\n    _;\n  }\n  \n  // Define a modifier that checks if an item.state of a upc is Packed\n  modifier packed(uint _upc) {\n    require(items[_upc].itemState == State.Packed);\n    _;\n  }\n\n  // Define a modifier that checks if an item.state of a upc is ForSale\n  modifier forSale(uint _upc) {\n    require(items[_upc].itemState == State.ForSale);\n    _;\n  }\n\n  // Define a modifier that checks if an item.state of a upc is Sold\n  modifier sold(uint _upc) {\n    require(items[_upc].itemState == State.Sold);\n    _;\n  }\n  \n  // Define a modifier that checks if an item.state of a upc is Shipped\n  modifier shipped(uint _upc) {\n    require(items[_upc].itemState == State.Shipped);\n    _;\n  }\n\n  // Define a modifier that checks if an item.state of a upc is Received\n  modifier received(uint _upc) {\n    require(items[_upc].itemState == State.Received);\n    _;\n  }\n\n  // Define a modifier that checks if an item.state of a upc is Purchased\n  modifier purchased(uint _upc) {\n    require(items[_upc].itemState == State.Purchased);\n    _;\n  }\n\n  // In the constructor set 'owner' to the address that instantiated the contract\n  // and set 'sku' to 1\n  // and set 'upc' to 1\n  constructor() payable {\n    sku = 1;\n    upc = 1;\n  }\n\n  // Define a function 'kill' if required\n  function kill() public {\n    if (msg.sender == ownerOfContract()) {\n      selfdestruct(payable(ownerOfContract()));\n    }\n  }\n\n  function getItem(uint _upc) public view returns(Item memory) {\n    Item memory item = items[_upc];\n    return item;\n  }\n \n  function getCurrentSku() public view returns(uint) {\n    return sku;\n  }\n\n  // Define a function 'harvestItem' that allows a farmer to mark an item 'Harvested'\n  function harvestItem(string memory _originFarmName, string memory _originFarmInformation, string memory  _originFarmLatitude, string memory _originFarmLongitude, string memory _productNotes) onlyFarmer public {\n    // Add the new item as part of Harvest\n    uint count = sku;\n\n    items[count] = Item({\n      sku: count,\n      upc: count,\n      ownerID: msg.sender,\n      originFarmerID: msg.sender, \n      originFarmName: _originFarmName,\n      originFarmInformation: _originFarmInformation,\n      originFarmLatitude: _originFarmLatitude,\n      originFarmLongitude: _originFarmLongitude,\n      productID: sku,\n      productNotes: _productNotes,\n      itemState: State.Harvested,\n      productPrice: 0,\n      distributorID: address(0),\n      retailerID: address(0),\n      consumerID: address(0)\n    });\n\n    setOwnerOfProduct(count);\n\n    // Increment sku\n    sku = sku + 1;\n    upc = upc + 1;\n    // Emit the appropriate event\n    emit Harvested(count);\n  }\n\n  // Define a function 'processtItem' that allows a farmer to mark an item 'Processed'\n  function processItem(uint _upc) public harvested(_upc) onlyOwnerOfProduct(_upc) onlyFarmer {\n    items[_upc].itemState = State.Processed;\n    \n    // Emit the appropriate event\n    emit Processed(_upc);\n  }\n\n  // Define a function 'packItem' that allows a farmer to mark an item 'Packed'\n  function packItem(uint _upc) public processed(_upc) onlyOwnerOfProduct(_upc) onlyFarmer {\n    items[_upc].itemState = State.Packed;\n    \n    // Emit the appropriate event\n    emit Packed(_upc);\n  }\n\n  // Define a function 'sellItem' that allows a farmer to mark an item 'ForSale'\n  function sellItem(uint _upc, uint _price) public packed(_upc) onlyOwnerOfProduct(_upc) onlyFarmer {\n    items[_upc].itemState = State.ForSale;\n    items[_upc].productPrice = _price;\n    \n    // Emit the appropriate event\n    emit ForSale(_upc);\n  }\n\n  // Define a function 'buyItem' that allows the disributor to mark an item 'Sold'\n  // Use the above defined modifiers to check if the item is available for sale, if the buyer has paid enough, \n  // and any excess ether sent is refunded back to the buyer\n  function buyItem(uint _upc) public payable forSale(_upc) paidEnough(_upc) checkValue(_upc) onlyDistributor {\n    // Update the appropriate fields - ownerID, distributorID, itemState\n    items[_upc].ownerID = msg.sender;\n    items[_upc].distributorID = msg.sender;\n    items[_upc].itemState = State.Sold;\n\n    // Transfer money to farmer\n    uint price = items[_upc].productPrice;\n    payable(items[_upc].originFarmerID).transfer(price);\n    \n    // emit the appropriate event\n    emit Sold(_upc);\n  }\n\n  // Define a function 'shipItem' that allows the distributor to mark an item 'Shipped'\n  // Use the above modifers to check if the item is sold\n  function shipItem(uint _upc, address _retailerID) public sold(_upc) onlyDistributor {\n    // Update the appropriate fields\n    items[_upc].itemState = State.Shipped;\n    items[_upc].retailerID = _retailerID;\n    // Emit the appropriate event\n    emit Shipped(_upc);\n  }\n\n  // Define a function 'receiveItem' that allows the retailer to mark an item 'Received'\n  // Use the above modifiers to check if the item is shipped\n  function receiveItem(uint _upc) public shipped(_upc) onlyRetailer {\n    require(items[_upc].retailerID == msg.sender);\n    // Update the appropriate fields - ownerID, retailerID, itemState\n    items[_upc].itemState = State.Received;\n    items[_upc].ownerID = msg.sender;\n    // Emit the appropriate event\n    emit Received(_upc);\n  }\n\n  // Define a function 'purchaseItem' that allows the consumer to mark an item 'Purchased'\n  // Use the above modifiers to check if the item is received\n  function purchaseItem(uint _upc) public received(_upc) onlyConsumer  {\n    // Update the appropriate fields - ownerID, consumerID, itemState\n    items[_upc].itemState = State.Purchased;\n    items[_upc].consumerID = msg.sender;\n    items[_upc].ownerID = msg.sender;\n    // Emit the appropriate event\n    emit Purchased(_upc);\n  }\n}",
  "sourcePath": "/home/richardmands/_cinderhouse/crypto/udacity_nanodegree/Project03TrackingItemsDapp/project/project-6/contracts/base/SupplyChain.sol",
  "compiler": {
    "name": "solc",
    "version": "0.8.0+commit.c7dfd78e.Emscripten.clang"
  },
  "schemaVersion": "3.4.1",
  "updatedAt": "2021-07-16T13:18:39.554Z",
  "networkType": "ethereum",
  "devdoc": {
    "kind": "dev",
    "methods": {},
    "version": 1
  },
  "userdoc": {
    "kind": "user",
    "methods": {
      "isOwnerOfContract()": {
        "notice": "Check if the calling address is the owner of the contract"
      },
      "ownerOfContract()": {
        "notice": "Look up the address of the owner"
      },
      "renounceOwnershipOfContract()": {
        "notice": "Define a function to renounce ownerhip"
      },
      "transferOwnershipOfContract(address)": {
        "notice": "Define a public function to transfer ownership"
      }
    },
    "version": 1
  }
}